:0200000460009A
:100000004643464200000156000000000103030081
:1000100000000000000000000000000000000000E0
:1000200000000000000000000000000000000000D0
:1000300000000000000000000000000000000000C0
:1000400000000000010408000000000000000000A3
:100050000000800000000000000000000000000020
:100060000000000000000000000000000000000090
:100070000000000000000000000000000000000080
:10008000EB04180A063204260000000000000000FD
:10009000050404240000000000000000000000002F
:1000A0000000000000000000000000000000000050
:1000B0000604000000000000000000000000000036
:1000C0000000000000000000000000000000000030
:1000D00020041808000000000000000000000000DC
:1000E0000000000000000000000000000000000010
:1000F0000000000000000000000000000000000000
:10010000D8041808000000000000000000000000F3
:100110000204180804200000000000000000000095
:1001200000000000000000000000000000000000CF
:10013000600400000000000000000000000000005B
:1001400000000000000000000000000000000000AF
:10015000000000000000000000000000000000009F
:10016000000000000000000000000000000000008F
:10017000000000000000000000000000000000007F
:10018000000000000000000000000000000000006F
:10019000000000000000000000000000000000005F
:1001A000000000000000000000000000000000004F
:1001B000000000000000000000000000000000003F
:1001C000000100000010000001000000000000001D
:1001D000000001000000000000000000000000001E
:1001E000000000000000000000000000000000000F
:1001F00000000000000000000000000000000000FF
:10020000FFFFFFFFFFFFFFFFFFFFFFFFFFFFFFFFFE
:10021000FFFFFFFFFFFFFFFFFFFFFFFFFFFFFFFFEE
:10100000D10020432914006000000000000000000F
:10101000201000600010006000F007600000000079
:101020000000006000FC070000000000FFFFFFFF61
:10103000FFFFFFFFFFFFFFFFFFFFFFFFFFFFFFFFC0
:10104000FFFFFFFFFFFFFFFFFFFFFFFFFFFFFFFFB0
:10105000FFFFFFFFFFFFFFFFFFFFFFFFFFFFFFFFA0
:10106000FFFFFFFFFFFFFFFFFFFFFFFFFFFFFFFF90
:10140000884207D0904205D251F8043B40F8043B93
:101410008242F9D8704700BF884204D2002340F8C6
:10142000043B8142FBD87047664B4FF42A01664A61
:1014300066482DE9F0475A641864654A99639546F1
:10144000BFF34F8FBFF36F8F16F09AFA614B0820EE
:10145000614A6249C3F854016148FFF7D1FF614A0C
:1014600061496248FFF7CCFF61496248FFF7D4FF4A
:10147000614C62494FF470000023614A086044F8EF
:1014800023200133B02BFAD15E4B80215E4A03F852
:10149000011B9342FBD14F4D4FF080385B494FF019
:1014A000FF325B4B0026DFF8A4A1DFF8A4911C609B
:1014B000C5F80481C5F800A1C5F8F480C5F8F0901E
:1014C0000B68544F43F4E0230B60FB693D4923F064
:1014D0007F0343F04003FB617B6A23F07F0343F00B
:1014E00040037B628A66CA660A674A6716F04EFA4C
:1014F000494A4A4B6320A2630321E363484A494BAC
:10150000106000F160401E6042F8041C00F6A170FB
:101510004549464AC3F8082D0B68454A43F0807395
:101520000B601368434943F00103136003680B60C9
:1015300016F07CFCC5F804813F48C5F800A1C5F849
:10154000F480C5F8F09016F093FEF96E3B4A41F432
:1015500040513B4BF9661660C2F80861C2F8186149
:10156000C2F82861C2F838619A6BD20708D442F6F3
:101570001562344959651A659A6B42F001029A6303
:101580002F4A314C936843F00113936016F070FAC0
:1015900016F0CAF917F004FA16F07AFC16F0F2F910
:1015A0002368132BFCD916F001FD2368B3F5967F51
:1015B000FBD316F0E9F916F0B7FD17F035F830BF98
:1015C000FDE700BF00C00A40FFFFAAAA07002000F5
:1015D0000000042000800D4068FA0300C05703603B
:1015E00000000000C09A00202C520760000000207C
:1015F00060D20220C09A00200098002088ED00E010
:10160000994A030000E400E0A0E400E024ED00E0DB
:1016100008ED00E000C00F402571030029710300B0
:1016200014E000E018E000E0FCED00E00000202005
:10163000001000E0F8C60220002CA3300040084053
:1016400000400D400000C056FCC602201B101820B0
:101650000C0D1113584941F27052DFED586A0244E3
:101660009FED570A2DE9F0410B790546497907EEC0
:10167000103A41F26C5307EE901AB8EE477A0344E1
:10168000F8EE677A87EE266A87EEA67A82ED006A20
:1016900083ED007A17F044F94A4B1A68540640F17A
:1016A00086804022484C49494948226008601A60B7
:1016B000444B1A68500676D54022434C454946486B
:1016C000226008601A603F4B1A68510667D54022B5
:1016D0003D4C42494248226008601A60394B1A6802
:1016E000520658D54022384C3E493F482260086097
:1016F0001A6041F298534FF07E573C4A00212B4428
:101700004FF07C563A4C28461F6041F21C479663C6
:10171000D1632F44A663E16317F04EF8002341F232
:10172000A95041F2B45141F2B8521E46DFF8C880C8
:101730002B546B50AB50F4B20122284647F8048B6F
:101740002146164417F0C0F901232146B6EE080AD7
:101750001A46284617F09CF8012321469FED250ADA
:101760001A46284616F01CFD012321469FED210A4A
:101770001A46284616F03CFD012321469FED1D0A1E
:101780001A46284616F090FD0E2ED4D12846BDE804
:10179000F04116F015BD134B134A1A60A9E70F4B21
:1017A0000F4A1A609AE70B4B0B4A1A608BE7074BFC
:1017B000074A1A607CE700BF74E0002000007F4306
:1017C0000000F04208E100E088E100E0400E022065
:1017D000CDCCCC3E440E0220CDCC4C3F500E02204E
:1017E0000BD7A33C4C0E02209F2C983684FD002082
:1017F0003CFD0020000000008E56FF3F044B987C0B
:10180000044B03F5717201280CBF1846104670474F
:1018100090C90020388C0160044B987C044B03F580
:10182000717201280CBF18461046704790C90020FD
:10183000C0930160024B1C2000FB0130704700BFC9
:10184000489B01602DE9F0411D4603680E46114694
:10185000D3F8B83090469847002840D006F14004AD
:1018600007460168204616F0DBFE7A7D954228BFC8
:101870001546B8F1080F0BD0B8F10C0F16D0B8F11F
:10188000030F19D11749204616F0E6FD164B04E068
:101890001449204616F0E0FD144B53F825302A4633
:1018A00021463046BDE8F04116F0BABF0D4920464A
:1018B00016F0D2FD0E4BF0E77B7C2BB10D49204694
:1018C00016F0CAFD6AB204E00B49204616F0C4FDCA
:1018D0002A4621463046BDE8F04116F0A1BFBDE8DA
:1018E000F08100BFF36A0020C02A0020782A00207F
:1018F000602A0020496B00205D6B002003682DE901
:10190000F041D3F8CC300D46114604469847C31E2B
:101910000646412B00F27281DFE813F042006B00B3
:101920006B006B006B00A700A300A700A300A7003B
:10193000A300A700A30068007C0168007C01680088
:101940007C0168007C018900890089008900890088
:101950008900890089007001700170017001B30075
:10196000700170015C01EB005C015C015C015C01D9
:101970005C012F01700170017001700170012F0175
:10198000700170017001700170013F014D0146014D
:101990005C015C0170013F014D0146015C015C018D
:1019A0002368032120262046D3F8B43098479E4967
:1019B0004268A5F1080016F033FF05F8016CE268F3
:1019C000294602239948D278023516F045FFE3688C
:1019D000974A2846DB7897490A2B88BF0B2352F891
:1019E000232016F01DFF2E54BDE8F0812F23AB708D
:1019F00010E100F13D03014605F8023CE3681F5C7D
:101A000020462368D3F8B4309847437DBB4207D8BB
:101A1000236831462046D3F8B4309847437D01E02F
:101A2000E3689B5D844A854952F823209EE0E36881
:101A300001461F5C20462368D3F8B4309847437DA5
:101A4000BB4207D8236831462046D3F8B4309847C4
:101A5000437D01E0E3689B5D794A7A4952F823208F
:101A600084E0E36878491A5C80E0E36876491A5CB0
:101A7000284616F0D5FE20232B542E23AB70BDE84C
:101A8000F081236824212046D3F8B4309847664972
:101A90004268A5F1080016F0C3FE202329466348DA
:101AA00005F8013C0223E268023592F8242016F082
:101AB000D3FEE3682421204693F824602368D3F8FA
:101AC000B4309847437DB34207D823682421204689
:101AD000D3F8B4309847437D02E0E36893F82430AC
:101AE0005A4A2846504952F8232016F099FE4323BB
:101AF00040E0236828212046D3F8B4309847406856
:101B000016F072FD23682F1A0646D3F8B430282148
:101B10002046984744494268384616F081FE202303
:101B2000801B29462B540223E26802353F4892F875
:101B3000282016F091FEE3682821204693F82860BB
:101B40002368D3F8B4309847437DB34207D823685D
:101B500028212046D3F8B4309847437D02E0E3685B
:101B600093F828303A4A3B4952F82320284616F089
:101B700057FE20232B54BDE8F081E368364A1B5CF6
:101B8000A81C3449092B88BF0A2352F8232016F0D9
:101B900047FE20232844837030E0E3682F4A1B5C13
:101BA000132B28BF13230CE0E3682D4A1B5C032B87
:101BB00028BF032305E0E368274A1B5C092B88BF85
:101BC0000A2352F82320A81C224916F029FE2023BC
:101BD00028448370236831462046D3F8B4309847B0
:101BE000406816F001FD23682F1A3146D3F8B4304F
:101BF000204698471B494268384609E02368314629
:101C00002046D3F8B430984707494268A5F1080048
:101C100016F006FEE268294602230448925DBDE8FC
:101C2000F04116F019BE00BFFC6A00208CB5002000
:101C3000C02A0020016B0020342B0020076B0020FD
:101C4000F02A00200C6B0020116B0020A82A002035
:101C5000902A0020166B0020742B00201C9000207E
:101C60000C9000201B6B0020034B9B7C012B01D1AF
:101C7000FFF7C4BD0148704790C900200CA3016064
:101C8000034B9B7C012B01D1FFF7C6BD0148704778
:101C900090C90020D0A60160024B1C2000FB01303F
:101CA000704700BFA88202602DE9F0411D4603681D
:101CB0000E461146D3F8B83090469847002840D0D9
:101CC00006F1400407460168204616F0A9FC7A7D1B
:101CD000954228BF1546B8F1080F0BD0B8F10C0F8C
:101CE00016D0B8F1030F19D11749204616F0B4FBEE
:101CF000164B04E01449204616F0AEFB144B53F883
:101D000025302A4621463046BDE8F04116F088BD10
:101D10000D49204616F0A0FB0E4BF0E77B7C2BB163
:101D20000D49204616F098FB6AB204E00B492046A4
:101D300016F092FB2A4621463046BDE8F04116F0E7
:101D40006FBDBDE8F08100BFF36A0020CC2F0020FA
:101D5000B02E0020982E0020496B00205D6B0020E3
:101D600003682DE9F041D3F8CC300D461146044606
:101D70009847C31E0646252B00F20581DFE813F0C5
:101D8000260003010301030103014C0003010301C9
:101D9000EF008100EF00EF00EF00EF00EF00C20066
:101DA00003010301030103010301C2000301030155
:101DB000030103010301D200E000D900EF00EF00AE
:101DC0000301D200E000D900EF00EF0023680321F7
:101DD00020262046D3F8B430984775494268A5F1CB
:101DE000080016F01DFD05F8016CE2682946022383
:101DF0007048D278023516F02FFDE3686E4A284607
:101E0000DB786E492F2B88BF302352F8232016F041
:101E100007FD2E54BDE8F081236808212046D3F841
:101E2000B430984762494268A5F1080016F0F8FC02
:101E3000202329465F4805F8013C0223E268023569
:101E4000127A16F009FDE368082120461E7A2368FD
:101E5000D3F8B4309847437DB34207D823680821AC
:101E60002046D3F8B4309847437D01E0E3681B7AFD
:101E7000534A28464E4952F8232016F0D1FC4323FA
:101E80003DE023680C212046D3F8B43098474068E1
:101E900016F0AAFB23682F1A0646D3F8B4300C219B
:101EA0002046984742494268384616F0B9FC20233C
:101EB000801B29462B540223E26802353D48127BE1
:101EC00016F0CAFCE3680C2120461E7B2368D3F879
:101ED000B4309847437DB34207D823680C2120468D
:101EE000D3F8B4309847437D01E0E3681B7B354A63
:101EF0002846354952F8232016F092FC20232B5413
:101F0000BDE8F081E368314A1B5CA81C2E49092B0F
:101F100088BF0A2352F8232016F082FC202328448D
:101F2000837030E0E3682A4A1B5C132B28BF13231D
:101F30000CE0E368274A1B5C032B28BF032305E062
:101F4000E368224A1B5C092B88BF0A2352F823202E
:101F5000A81C1D4916F064FC2023284483702368C4
:101F600031462046D3F8B4309847406816F03CFB21
:101F700023682F1A3146D3F8B430204698471649C3
:101F80004268384609E0236831462046D3F8B43029
:101F9000984707494268A5F1080016F041FCE2683D
:101FA00029460223925D0348BDE8F04116F054BC77
:101FB000FC6A00208CB50020CC2F0020016B002093
:101FC0008C300020B42F0020166B0020A43000209D
:101FD0001C9000200C9000201B6B0020024B1C204A
:101FE00000FB0130704700BF5C870260004870470B
:101FF000508A026000487047148E0260F8B503688A
:102000000D4611460446D3F8CC30984730BBE26801
:1020100029460646022312780235114816F01CFCA8
:10202000E368314620461F782368D3F8B4309847D8
:10203000437DBB4207D8236831462046D3F8B430ED
:102040009847437D01E0E3681B78064A2846064925
:1020500052F8232016F0E4FB20232B54F8BD00BFD8
:102060008CB50020A02B0020166B002070B51C46FC
:1020700003680D461146D3F8B83016469847D8B1D4
:10208000022E02D162B20D4911E0032E08D104F0F4
:102090000F03220928460A49BDE8704016F0C0BB6C
:1020A000437C13B162B2074901E022460649284643
:1020B000BDE8704016F0B4BB70BD00BF226B0020BD
:1020C0002E6B0020446B0020586B0020C1688BB23F
:1020D000012B10B501D0002010BD03694AF644421F
:1020E000934203640DD045F2226293420CD042F633
:1020F00011329342134A144B12BF0022134604229A
:1021000004E0114B002201E0104B0422090C0129CC
:10211000818704D00229DED15B0842F00102418BA5
:102120008CB20829A0F8444007D0102903D15B08DD
:1021300042F0020201E0182CCDD1836480F85420D3
:10214000012010BDF24E3817BC13CE0579279C0B29
:102150002DE9F84FB0F84E600446B34B0D46082702
:102160004FF0000B1E44DFF8D8A2002D00F059817B
:1021700094F85330083B052B00F24E81DFE813F052
:1021800006004F007D00210138015101636B04F10D
:102190000C003146AB4228BF2B46984694F852308B
:1021A0004246184416F0F0FA94F85230434484F84A
:1021B0005230B4F84E304344A4F84E30636BC8EB51
:1021C00003036363002B40F02C81E26897498A4245
:1021D00040F02281A1F570016269A1F2FB718A428F
:1021E00040F01A8101F15B41A26901F5F11101F69C
:1021F0000F418A42E26908D1A2F11001182900F2C8
:102200000B8184F85230092302E00C2384F8523009
:1022100084F853304644C8EB05056263A5E7636B59
:1022200004F10C003146AB4228BF2B46984694F887
:1022300052304246184416F0A7FA94F852304344FC
:1022400084F85230B4F84E304344A4F84E30636BF7
:10225000C8EB0309C4F83490B9F1000F40F0E180F5
:102260002046FFF733FF002800F0D6804644C8EB35
:102270000505676384F85290B6E0636B04F10C00C7
:102280003146AB4228BF2B46984694F8523042461E
:10229000184416F079FA94F85230626B4344C8EB54
:1022A000020284F85230B4F84E3062634344A4F81A
:1022B0004E30002A40F0B580E36846442169C8EBFF
:1022C00005055345616376D194F85430A06884F8CD
:1022D000552084F85330836CA1630BB15A6904E034
:1022E000C26C0AB1126800E01A46551B65600D44C5
:1022F00005F001022A4423B11146184615F0FCFEF0
:1023000003E0C06C08B115F0BFFFA0680423464A83
:1023100000F14C01806C16F0FBFB04281BD1444DEE
:10232000444816F029FCD5F80730434AA8469342A2
:1023300014D1A0684023EA1D00F14C01806C16F016
:10234000E7FB402807D1D5F83730C4F8DC30D5F8A2
:102350003B30C4F8E0300120BDE8F88F374A9342A3
:10236000F9D1A068EA1D082300F14C01806C16F039
:10237000CFFBD5F80B700025202F28BF2027EEB209
:10238000B742E8D9A0681823274A013500F14C016B
:10239000806C16F0BDFB1828DDD12648163616F0E5
:1023A000EBFBD8F81B3044F8263094F8D8300133D2
:1023B00084F8D830E3E7CB0701D5013161630B2303
:1023C00013E0636BB4F84E209D4205D25B1B1544AD
:1023D0006363A4F84E5024E01E44ED1A134467636F
:1023E00084F852B0A4F84E300A2384F85330BCE687
:1023F000636B2A46B4F84E109D4228BF1A4611441A
:102400009B1AA4F84E1001D063630AE01644AD1A7B
:10241000676384F85370A8E60D2384F8543084F879
:1024200053300020BDE8F88FDFE1002052494646D6
:10243000D8E1002064E50020736D706C6375652041
:10244000646174610D232DE9F04F80F8533095B02D
:1024500080F8543000230446884643631546A0F8AC
:102460005030A0F84E3013782F2B0DD09B4E9C4847
:1024700016F056F90146304616F0D2F8304616F0FE
:10248000B3F82946304401E011469448F82616F086
:10249000C7F8924A0023934F06FB08F6A2F1870182
:1024A000684615F00DFFBD199DF80430103604A9DB
:1024B00005F110002B713E44029BB946AB609DF8BC
:1024C0000C302B7315F054FF874B04A8009316F0C3
:1024D000BFF8B36B0BB19F8803E0F76B0FB1BF6A16
:1024E0007F09804E4FF0000ADFF808B2D04515D0C2
:1024F00096F8503093B1B06CBBB218B18288934259
:102500000CD1AEE0D6F84CE0BEF1000F00F0DC805C
:10251000DEF82820B3EB521F00F0CE800AF1010A4A
:10252000F836BAF1800FE1D10021142304F15806E6
:102530005246636384F852103046C4F8DC10C4F885
:10254000E01084F8D810A56015F096FF0823674ABC
:1025500005F14C0184F853304FF40073A86C16F069
:10256000D7FAA4F85000B4F8501094F85330C1B121
:10257000072B16D90D2B6AD02046FFF7E9FDA0687E
:102580004FF40073594A00F14C01806C16F0C0FA08
:102590000023A4F85000A4F84E30554816F0ECFA89
:1025A000E1E7072B53D86368F82031466B6594F850
:1025B000533000FB089085F858306C30A38FA5F895
:1025C0006030236C6B66B4F84430A5F86830A36BB8
:1025D000EB65D4F8DC20D4F8E030C5F8F020802298
:1025E000C5F8F43016F0D0F894F8D83085F8EC300F
:1025F0000123A16885F85030A26B6368886C1A4487
:10260000002308B1C06905E0C96C11B1D1E904012A
:1026100001E000200021994208BF904201D201232D
:1026200018E0B4F84430182B02D9042384F856304B
:10263000B5F860300120022B03D985F8510005233D
:102640000BE0002385F8513084F8563042E0012336
:1026500085F8503085F85130032384F85630002037
:1026600038E00023802221498BF8073015F05CFF09
:102670001A49A1F1800016F027F800287FF44EAF28
:10268000F82096F8503000FB089080F8503096F80B
:10269000513080F85130F36DC365736D4365B6F802
:1026A0006830A0F86830736E4366B6F86030A0F802
:1026B000603095F851000DE08BF8070080220B493F
:1026C000704615F0ADFDD3E7002B7FF427AF8BF8F4
:1026D0000730CDE715B0BDE8F08F00BF5FE2002006
:1026E00060DD0020E4180220380D0020DFE100202A
:1026F00064E50020D8E10020024B1C2000FB0130E3
:10270000704700BFD89102602DE9F0411D46036873
:102710000E461146D3F8B83090469847002840D06E
:1027200006F1400407460168204615F079FF7A7DDE
:10273000954228BF1546B8F1080F0BD0B8F10C0F21
:1027400016D0B8F1030F19D11749204615F084FEB1
:10275000164B04E01449204615F07EFE144B53F846
:1027600025302A4621463046BDE8F04116F058B8DB
:102770000D49204615F070FE0E4BF0E77B7C2BB127
:102780000D49204615F068FE6AB204E00B49204668
:1027900015F062FE2A4621463046BDE8F04116F0AB
:1027A0003FB8BDE8F08100BFF36A0020203400206C
:1027B0004434002008340020496B00205D6B002069
:1027C00003682DE9F041D3F8CC300D46114604469C
:1027D0009847C31E0646262B00F23581DFE813F02A
:1027E0004F002700330133013301330180003301EF
:1027F00033011F01B1001F011F011F011F011F0134
:10280000F20033013301330133013301F2003301AC
:1028100033013301330133010201100109011F01AA
:102820001F0133010201100109011F011F0123686B
:10283000042120462026D3F8B43098478C494268BA
:10284000A5F1080015F0ECFF05F8016CE268022321
:1028500088482946127915F0FFFFE368A81C1A7909
:102860000AB9854902E0012A03D1844915F0D8FE4E
:1028700002E0834915F0D4FF2E72BDE8F081236891
:1028800003212046D3F8B430984779494268A5F12E
:10289000080015F0C5FF20232946764805F8013CBD
:1028A0000223E2680235D27815F0D6FFE3680321EF
:1028B0002046DE782368D3F8B4309847437DB3428E
:1028C00007D8236803212046D3F8B4309847437DC6
:1028D00001E0E368DB786B4A6B4952F823206AE039
:1028E000236809212046D3F8B430984760494268EC
:1028F000A5F1080015F094FF202329465D4805F84E
:10290000013C0223E2680235527A15F0A5FFE36824
:10291000092120465E7A2368D3F8B4309847437D76
:10292000B34207D8236809212046D3F8B43098472A
:10293000437D01E0E3685B7A544A4D4952F8232015
:1029400039E023680D212046D3F8B4309847406819
:1029500015F04AFE23682F1A0646D3F8B4300D212D
:102960002046984742494268384615F059FF2023CF
:10297000801B29462B540223E26802353D48527BD6
:1029800015F06AFFE3680D2120465E7B2368D3F8CB
:10299000B4309847437DB34207D823680D212046C1
:1029A000D3F8B4309847437D01E0E3685B7B384A55
:1029B000384952F82320284615F032FF20232B54A3
:1029C000BDE8F081E368344A1B5CA81C2E49082B43
:1029D00088BF092352F8232015F022FF2023284422
:1029E000837030E0E3682D4A1B5C132B28BF132350
:1029F0000CE0E3682A4A1B5C032B28BF032305E095
:102A0000E368254A1B5C082B88BF092352F8232062
:102A1000A81C1D4915F004FF202328448370236857
:102A200031462046D3F8B4309847406815F0DCFDB5
:102A300023682F1A3146D3F8B430204698471549F9
:102A40004268384609E0236831462046D3F8B4305E
:102A5000984707494268A5F1080015F0E1FEE268D1
:102A600029460223925D0348BDE8F04115F0F4BE0B
:102A7000FC6A00208CB50020616B0020686B002090
:102A80006F6B002074340020166B002098340020F7
:102A90005C3400201B6B0020B03400201C90002010
:102AA0000C900020034B9B7C012B01D1FEF7A6BEAE
:102AB0000148704790C900208C960260034B9B7CB4
:102AC000012B01D1FEF7A8BE0148704790C9002034
:102AD000509A0260024B1C2000FB0130704700BF7F
:102AE00014A602602DE9F0411D4603680E4611460A
:102AF000D3F8B83090469847002846D006F14004F5
:102B000007460168204615F08BFD7A7D954228BF67
:102B10001546B8F1080F11D0B8F10C0F1CD0B8F160
:102B2000030F1FD11A49204615F096FC092D2A469D
:102B3000184B28BF092253F8223006E014492046DA
:102B400015F08AFC144B53F825302A4621463046AE
:102B5000BDE8F04115F064BE0D49204615F07CFC3F
:102B60000E4BF0E77B7C2BB10D49204615F074FC31
:102B70006AB204E00B49204615F06EFC2A46214655
:102B80003046BDE8F04115F04BBEBDE8F08100BF16
:102B9000F36A00201C2C0020DC2B0020C42B00201A
:102BA000496B00205D6B002003682DE9F041D3F8EC
:102BB000CC300D46114604469847C31E0646252BC9
:102BC00000F20581DFE813F0260003010301030191
:102BD00003014C0003010301EF008100EF00EF004F
:102BE000EF00EF00EF00C200030103010301030146
:102BF0000301C20003010301030103010301D20029
:102C0000E000D900EF00EF000301D200E000D9009E
:102C1000EF00EF002368032120262046D3F8B430CC
:102C2000984775494268A5F1080015F0F9FD05F8C7
:102C3000016CE268294602237048D278023515F00B
:102C40000BFEE3686E4A2846DB786E49092B28BFE5
:102C5000092352F8232015F0E3FD2E54BDE8F0813E
:102C6000236808212046D3F8B43098476249426867
:102C7000A5F1080015F0D4FD202329465F4805F88A
:102C8000013C0223E2680235127A15F0E5FDE368A3
:102C9000082120461E7A2368D3F8B4309847437D34
:102CA000B34207D8236808212046D3F8B4309847A8
:102CB000437D01E0E3681B7A534A28464E4952F8A7
:102CC000232015F0ADFD43233DE023680C21204671
:102CD000D3F8B4309847406815F086FC23682F1A63
:102CE0000646D3F8B4300C21204698474249426842
:102CF000384615F095FD2023801B29462B540223CE
:102D0000E26802353D48127B15F0A6FDE3680C2110
:102D100020461E7B2368D3F8B4309847437DB342E6
:102D200007D823680C212046D3F8B4309847437D58
:102D300001E0E3681B7B354A2846354952F82320D9
:102D400015F06EFD20232B54BDE8F081E368314A75
:102D50001B5CA81C3049092B88BF0A2352F823208A
:102D600015F05EFD20232844837030E0E3682B4A91
:102D70001B5C132B28BF13230CE0E368284A1B5C61
:102D8000032B28BF032305E0E368224A1B5C092BC1
:102D900088BF0A2352F82320A81C224915F040FDC1
:102DA000202328448370236831462046D3F8B4306A
:102DB0009847406815F018FC23682F1A3146D3F85D
:102DC000B4302046984712494268384609E02368E3
:102DD00031462046D3F8B430984707494268A5F1F8
:102DE000080015F01DFDE26829460223925D0348A4
:102DF000BDE8F04115F030BDFC6A00208CB5002024
:102E00001C2C0020776B0020442C0020042C002078
:102E10001B6B00206C2C00207D6B00201C90002080
:102E20000C900020166B00200023F7B54376044673
:102E3000037E1F4DD3B9C268036811789B6A984717
:102E4000002813DBC6B2E1682368204632460978C1
:102E5000DB6A9847E36820461E702B7A2978E2687F
:102E60001944236812781B6CC9B298471048002691
:102E700015F052FE2A782B7A20466978134422688E
:102E80000091A674DBB2576B0122E168B8472B7A38
:102E900029786A78194406483346C9B215F0D0FD3E
:102EA000236820469B6B03B0BDE8F040184700BF85
:102EB00044B5002000220B46090610B542764FF0BB
:102EC000010254BFC3F380014FF0FF3102765A066E
:102ED000044654BFC3F340124FF0FF329B0703D5A3
:102EE000837C0BB9120112B2064815F009FA236867
:102EF00020461B6B9847236820469B6BBDE810401B
:102F0000184700BF44B5002070B5837C00250446F7
:102F10004576002B6ED0C37D3F48012B15D115F0AF
:102F2000FBFD2B462946A28A3B48112515F088FD5A
:102F3000394815F031FD013D05D000220121364808
:102F400015F0DEF9F7E7022327E0022B27D1102541
:102F500015F0E2FD00224FF0FF312F4815F0D0F9B7
:102F6000013DF7D110254FF0FF3200212A4815F01E
:102F7000C7F9013DF7D1284815F00EFD2946212556
:102F80000F22254815F0BCF9013D05D00022012192
:102F9000214815F0B5F9F7E70323E37570BD032B5E
:102FA00014D115F0B9FD2B46A28AE17CA5742576D3
:102FB000E575194815F044FD236820461B6B9847BA
:102FC000236820469B6BBDE87040184715F0A4FDB0
:102FD0006FF00E022946104815F092F90E4815F0D0
:102FE000DBFC0F2229460C4815F08AF90123E37512
:102FF000237670BD0122C375037682740648027879
:10300000037A13444289E3744378A2751344A3827C
:10301000BDE8704015F0C0BC44B500202DE9F04F6C
:103020001F460023044689B04376080654BFC1F307
:1030300080004FF0FF304B0608D401F0200101F072
:10304000FF0311B15242D2B200E01A460244A37CFF
:10305000D5B24FFA85F9002B3DD1784D2046E36873
:1030600029781E782B7A19442368C9B25B6C98477B
:10307000297886422B7AE6682268194417D1D36BE7
:10308000C9B2204698473070E368204629781E78F8
:103090002B7A19442368C9B25B6C984786420DD1DC
:1030A0002B7A2978E66819442368DF6C00E0D76C36
:1030B0004B463278C9B22046B84730702A7820464D
:1030C0002B7A6978134422680091DBB2556BE16872
:1030D0000122A84747E0594815F042F8037890F8D4
:1030E00001B0029383780393C378039A0493029BFD
:1030F000934202D1002F48D102E0002F2FD00027A9
:10310000FF26013D1FFA8BFBBA46EBB20693049BE8
:103110009B4524D85FFA8BF3029D0593039B9D4248
:1031200018D823682A46217920465F6A059BB8474C
:103130002368074629465B6C20469847FF2855D1EF
:103140002368294697F8008020465B6C98478045A5
:103150004CD157E00BF1010B1FFA8BFBD7E723682B
:1031600020461B6B9847354B2046E26819781B7A3E
:10317000127819442368C9B21B6C9847236820460B
:103180009B6B09B0BDE8F04F1847BDF810301FFA2F
:103190008BF8FF260693069B984525D8FF2E23D152
:1031A0005FFA88F3029F059323683A462179204607
:1031B000D3F824A0059BD047226803788246526C3E
:1031C0003946079320469047079B834202D09AF8DE
:1031D000006004E00137029BFFB2BB42E4D208F179
:1031E00001081FFA88F8D6E701278AE723683A78AA
:1031F000D3F84C804B4629462046C04738700135ED
:10320000EDB28BE7BAF1000FF9D0FF2E0ED1236893
:10321000294620465B6C9847FF2807D1B9F1010F7A
:103220000ADCB9F1000F01DB0698E7E723683246B4
:10323000D3F84C804B46DEE71020DFE744B5002092
:103240002DE9F04F00239246867C012289B0044686
:103250004376027443742EBBC368714D1F7829787E
:103260002B7A19440368C9B25B6C984787420AD02D
:103270002B7AB24629782046E268194423681278EE
:103280001B6CC9B2984701232A786978A3742B7AFA
:1032900063481A446B890B44D2B2DBB211460093E7
:1032A00015F04EFB5E4814F05BFF4378C77803933C
:1032B00083781FFA87FB90F80080204604932368E8
:1032C000584D1B6A98470023BDF80C906B70049B07
:1032D0004E462870C8EB0303AB70039BFB1AEB70E0
:1032E000514B05935E451FD8F3B2474607960693A8
:1032F000049B9F4214D86B78FF2B11D023683A4669
:10330000217920465E6A0137069BB047059A03780B
:10331000FFB202F8013B6B78059201336B70E7E76F
:10332000079E0136B6B2DDE7BAF1000F01D14E4675
:1033300036E0C9F1010745465F44BFB2049B9D4298
:1033400048D84E46238CB34225D923685FFA86FAC3
:103350002A462179D3F824B020465346D847228CF8
:10336000F31983469A4222680CDD0AEB07032179A0
:10337000D2F824A02046DBB22A46D04703788BF847
:10338000003005E0536C2946204698478BF8000032
:103390000136B6B2D6E70135EDB2CFE70136B6B2A7
:1033A0005E4517D84546F7B2049B9D42F6D8236880
:1033B0002A4621792046D3F824A03B46D0472368EB
:1033C0008246294601355B6C204698478AF8000002
:1033D000EDB2E9E7124D284615F09EFBE279039B1A
:1033E0009A1A05D59DF80C300022E371A5F80A90D1
:1033F00092B2414600230A4815F022FB236820467A
:103400001B6B9847236820469B6B984700232046F8
:10341000A37423681B6B09B0BDE8F04F184700BFC9
:1034200044B5002038EF002038EE00202DE9F04FA1
:103430001E460023634D87B04376044603682F7809
:1034400003921B6A98478742019540F0B780002E8F
:1034500050D0EB78268C5A1C5B4F013E6FEA030B71
:10346000D2B2BA4602927A787B8913449BB2B342B5
:1034700040DA3B7A5FFA86F93D78CDF814B01D4406
:1034800009EB0B03B346EDB204939AF800209AF8C7
:1034900008301344019A927852FA83F39D4224DC57
:1034A000E38BAB4221D923682A46217920465E6A04
:1034B0004B46B047029B8046C3EB0B03002B2368AF
:1034C00006DA5B6C29462046984788F8000009E038
:1034D0005E6A2A469DF8103020462179B04703786D
:1034E00088F800300135EDB2CFE75E46DDF814B064
:1034F000013EB8E7019B0026334F93F80290354612
:10350000DFF8C880BA46019B5B78AB424BD90023F9
:10351000FF2E5FFA83FB46D039783A7A0A44E18B72
:1035200053FA82F28A420DDAE26801330136511C05
:103530005FFA83FBF6B2E160D94518F8011B117000
:10354000E6D204E0C3EB09030133984401E0FF2E07
:1035500029D09AF80120BAF80A301344228C9BB281
:10356000013A93420FD1039BEBB13B7A397816486D
:1035700019440023C9B21A4615F062FA236820469E
:103580009B6B98470AE0012200210F4814F0B8FE17
:10359000E38BCBEB030BE3685B44E36009F10103CE
:1035A0001D44EDB2AFE7236820461B6B98472368A4
:1035B00020469B6B07B0BDE8F04F184707B0BDE849
:1035C000F08F00BF38EF002044B5002038EE002017
:1035D0002DE9F04F837C4FF000092DED048B80F82E
:1035E000199081B0002B00F0998004464E4814F0E9
:1035F000B7FD067883789E4240F09080457890F839
:1036000003A02F46CAEB0503D0460133022B40F23C
:103610008580464B9B7A032B01D1022E02E0042BBE
:1036200005D1012ED4BF4FF000094FF00109ADB212
:10363000AA4510DBB9F1000F0CD12368324621797D
:103640002046D3F824B0EBB2D8470378FF2B01D142
:103650000135ECE72F461FFA8AF5BD4211DDB9F1BD
:10366000000F0DD12368324621792046D3F824A0DB
:10367000EBB2D0470378FF2B02D1013DADB2ECE7AE
:10368000A84623683246217920465D6AFBB2A847E6
:10369000236890F800A032465D6A20465FFA88F3FE
:1036A0002179A84703787D1C4FF00109CAEB030379
:1036B00009EE90AAADB208EE103AC7EB080308EE87
:1036C000903AA84523681DDDF8EEC87A5F6AB8EE27
:1036D000E87AEBB2324621792046013587EE879AA7
:1036E000B84707EE909AADB209F10109B8EEE77A52
:1036F000F8EEE97AE9EE077AFCEEE77A17EE903A0F
:103700000370DEE720461B6B9847236820469B6BBF
:1037100001B0BDEC048BBDE8F04F184701B0BDEC23
:10372000048BBDE8F08F00BF44B50020C8DD002049
:10373000837C002B4CD1037C73B50446002B45D110
:10374000C368244D1E7829782B7A19440368C9B2BE
:103750005B6C984786422268E66809D12B7A20463E
:1037600029781944D36BC9B29847012330700EE011
:10377000637E0BB3184B9B8D022B1DD1936A2046A1
:1037800031789847002801DBE368187000236376DE
:1037900020462B7A2978E2681944236812781B6C3A
:1037A000C9B298472268697820462B780091556BFA
:1037B0000122E168A84709E02B7A204629781944BC
:1037C000136C3278C9B298470123637602B070BD9A
:1037D000704700BF44B50020B8CE002000234376D8
:1037E000837C002B00F0898011B101234374704762
:1037F0002DE9F04F044685B040480D4614F0B0FC6A
:10380000837890F80190009323681FFA89F790F865
:10381000038090F800B020461B6ABA469847009B88
:10382000374ECBEB03033070B370C9EB08037570F0
:10383000F370344B01931FFA88F30393ABB2039AEE
:103840000AEB03081FFA88F8424520D309EB050369
:10385000D846DBB20293009B434516D37378FF2B07
:1038600013D023684246217920465F6A08F1010897
:10387000029BB847019A03785FFA88F802F8013B87
:103880007378019201337370E5E70135D6E71B4E7B
:1038900057469A46304615F03FF9E37D1FFA8BF103
:1038A000012B08D1012D728903D1C2F101023A44E2
:1038B00008E0BA1A06E04D440F2D06DC7289BF1AE3
:1038C0000AEB0702002392B201E000234246304691
:1038D00015F0B6F8236820461B6B984723682046EE
:1038E0009B6B9847002308481A4608490068A37450
:1038F00005B0BDE8F04F14F0D3BC704744B50020CC
:1039000038EF002038EE00205CC90020826B0020D8
:10391000837C002B7AD011F0600F77D02DE9F74F20
:1039200004463B480E4614F01BFC8378057801934F
:10393000B30690F80180C77838D5019BAB425ED3BF
:1039400023682A46217920465E6A3B46B0473E46B8
:1039500090F80090B0452179236814D2D3F824A0C0
:103960003346013E2A462046D0472368F6B28246B7
:10397000D3F824B02A46334621792046D847037825
:103980008AF80030E6E72A4601355E6A204643465B
:10399000EDB2B04780F80090CFE72A4601355E6A65
:1039A0002046EDB23B46B04780F800A0019BAB42F9
:1039B00025D323682A46217920465E6A4346B047CC
:1039C000464690F800A0B74221792368E5DD5FFA0A
:1039D00086F9D3F824B02A4620464B460136D8470C
:1039E000226809F101038346D2F824902046DBB215
:1039F0002A462179C84703788BF80030E3E723682B
:103A000020461B6B03B0BDE8F04F1847704700BF5E
:103A100044B5002061B9034610B4447C19742CB13C
:103A2000597403685DF8044B9B6D18475DF8044BAF
:103A3000704700BF0368DB69184700BFF0B400257A
:103A40000127BDF81060818200210783068205707E
:103A50008570C5704570C282438201624162F0BCCC
:103A6000704700BF000100010000010001000100DB
:103A7000F8B50446BDF818E09DF81C700026002536
:103A8000A0F84A1184F84C213146A4F846314FF48D
:103A9000A07284F848E1063084F84D7184F84E61D4
:103AA000C4F85051C4F8545114F0E6FC2046F8BD57
:103AB000014B0360704700BFD8E00020F8B55F4BB2
:103AC000022904460D461B684360037A24D10BB3D8
:103AD000437A122B0CD1837A002B6BD15848437E4A
:103AE000002B5AD1574B5979574814F0F1FC11E08B
:103AF0000A2B0CD1837A002B70D15148437E002BC6
:103B00005FD1504B5979504814F072FC02E04E4896
:103B100014F0AEFE01230FE012290ED001F0EF02E7
:103B20000A2A0AD03BB1437A0A2B01D0122B02D1C8
:103B3000002323722FE000232372237A33B3122D44
:103B40000DD1A37A002B5DD13D48437E002B4CD193
:103B50003C4B59793C4814F0BBFC12230EE00A2D73
:103B60000ED1A37A002B61D13548437E002B50D172
:103B7000344B5979344814F03BFC0A236372F8BD86
:103B80001A2D03D1304814F073FE04E02068294652
:103B900003685B6898476572F8BD14F0E1FA074660
:103BA0000678BB789E42B5DCF1B2274814F090FC51
:103BB0000136F6E70D2B95D1244814F0A5FA0146FD
:103BC00092E714F0CDFA07460678BB789E42A1DC56
:103BD000F1B21D4814F00CFC0136F6E70D2B90D124
:103BE0001A4814F091FA01468DE714F0B9FA064626
:103BF0000578B3789D42B0DCE9B2134814F068FC54
:103C00000135F6E70D2BA3D1104814F07DFA0146DB
:103C1000A0E714F0A5FA06460578B3789D42ACDC1F
:103C2000E9B2094814F0E4FB0135F6E70D2B9FD10A
:103C3000064814F069FA01469CE700BFFCC6022062
:103C400044B50020D8E00020249F002080D0002030
:103C5000F8B5837A044681720D46037300680368E1
:103C60001B699847314814F073FA152D5DD8DFE8C9
:103C700005F00D150B0F1311175C191B20222426BC
:103C8000282A2C2E30323436294B29E0294B27E0C4
:103C9000294B25E0294B23E0294B21E0294B1FE04C
:103CA000294B1DE0294B1BE0294814F06DFA294BE4
:103CB00016E0294B14E0294B12E0294B10E0294B68
:103CC0000EE0294B0CE0294B0AE0294B08E0294B78
:103CD00006E0294B04E0294B02E0294B00E0294B88
:103CE0002360206803689B69984710B9264814F040
:103CF000CBFB206803681B689847206803685B69F2
:103D0000984720B92048BDE8F84014F0EDBA0123E7
:103D10001E4E41F29035002720467355E77214F08D
:103D2000D7FD204614F0C8FC7755F8BD68E00020A8
:103D30001CB50020D8E00020A0D0002090C90020B1
:103D4000ECE4002068C9002060DD002098DD002040
:103D50006C0E022020C90020200000002CC9002089
:103D60007CB5002080D000208CDD002080DD00208C
:103D70001CE50020A0DD0020E8DD002058E0002048
:103D800004B5002040C900205CC900208CB500208B
:103D900013B5074C204614F0AFFDB92301902D2236
:103DA0000093FA214623204614F002FE02B010BD13
:103DB0008CB500202DE9F041044639482DED028BE9
:103DC00084B014F025FE3748A68914F0F1FA36497C
:103DD0000246364814F024FD344B0E220F2134489D
:103DE00014F09AFAE389B34208D04FEA2628314FFB
:103DF0000025DFED318A9FED318A03E0E37C002B63
:103E0000F3D047E048FA05F346FA05F003F0010164
:103E1000E37C00F001005BB1E3891A122A4102F051
:103E20000102914204D12B4103F0010398422AD0B0
:103E300038B946F22C3341F6E302002908BF134695
:103E400001E040F2FF73F2EE087A97ED007AF0EEAF
:103E5000686A1748E7EE276ABDEEE67AF0EE486A30
:103E60008DED027A17ED017A01930A23E7EE276AB6
:103E7000BDF908200093FDEEE67ACDED037ABDF999
:103E80000C1014F095FD01350837082DBAD1012327
:103E9000E681E37404B0BDEC028BBDE8F08100BFA5
:103EA00018E1002040DD0020C76B00205FE2002009
:103EB0008CB50020D430002000005C4200007A4322
:103EC00010B4054C0022FF2104608174027142711C
:103ED0005DF8044B704700BFD0180020704700BF4A
:103EE00000487047ACAA02600048704770AE02609C
:103EF000704700BF704700BF704700BF704700BFEA
:103F000073B50024094D064600F1100123462846EA
:103F10000094012214F0F8FD0122234606F111015C
:103F20002846009214F0F0FD02B070BD8CB5002060
:103F30004379052B65D8DFE803F00315252E4632BB
:103F4000037C3049002B0CBF01230023037491F83C
:103F5000233023F0020214BF02230023134381F80D
:103F600023300DE0427C012312B18374264A0CE019
:103F7000244A437492F8233023F0040382F8233058
:103F8000FFF7BEBF0223214A8374214B0C21214835
:103F90009A60FFF75DBE03231F4A8374F5E71F4B4A
:103FA0001B7823B91E481A461E49006816E010B552
:103FB00004461D4814F0E4F848B11C491A4814F0AE
:103FC000C3F968B903E00423194A8374DDE70023C9
:103FD00018491A461248BDE81040006814F060B94C
:103FE000637BFF2B03D0002313491A46F2E7637962
:103FF0000C21124AA374064B06489A60BDE8104093
:10400000C7E7704774E00020CE6B0020316C0020C1
:104010007CB50020C8DD0020706C00208CC9002019
:104020005CC900209C6C0020D8E10020B56C002009
:10403000136D0020536D0020BD6C0020D06C00205B
:10404000044B5A8959780A4442711A781B7A1344EE
:104050000371704744B500202DE9F043044685B054
:104060008448002514F0D4FC834A8448A2F5717179
:1040700014F05EFB824814F04FFD0F221E2380488F
:104080000092194614F018FDA27C01232573FF2A23
:104090006573E581E574237540F08D80794A0226C9
:1040A00092F823301746C3F3400383F001032374CF
:1040B00092F82330C3F3800383F0010363747248E2
:1040C0000FF016F905EB450310F803806E480FF06A
:1040D0000FF9304410F8019C6B480FF009F9835D2B
:1040E000E9B20135009342464B46644814F030FD76
:1040F0000D2D06F10306E2D1604814F0FDFB0146E8
:104100005E4814F045FA2046FFF7FAFE0023627974
:1041100021795B4814F094FC2046FFF791FF5B483F
:104120000379002B00F0A380594914F00DF9002801
:1041300000F09D80B7EE000A3C795648FF2514F048
:1041400053F801227E2154483C7114F0A1F9012258
:104150007F215148002414F09BF978267E214F4896
:1041600013F0D6FF7F2145734C4813F0D1FF302365
:1041700044737E222146029401950096484814F02B
:104180003BF8322014F01CFA2146454813F0D8FFC2
:1041900035237F220121029401950096404814F0B6
:1041A0002BF8322014F00CFA21463D4805B0BDE84A
:1041B000F04313F0C5BF3B4B1B7B0C2B48D13A4B54
:1041C0005B7B002B3FD0531E042B41D8DFE803F06C
:1041D0000F2C21070300354814F0AEFB02E02948FC
:1041E00014F066FB0021314814F0A2F930E0637C42
:1041F0002449002B0CBF01230023637491F8233062
:1042000023F0040214BF04230023134381F8233056
:104210001EE01C4814F008FB002325481A462549D7
:10422000006814F03DF813E02046FFF769FE002314
:1042300062792179124814F003FC2046FFF700FF51
:104240000123A37504E0627921790D4814F0F8FB8D
:104250002046FFF755FE002362792179084814F0C3
:10426000EFFB204605B0BDE8F043FFF7E9BE05B01F
:10427000BDE8F08318E1002070AE02608CB500202C
:1042800044B5002074E000201CE50020D8E10020A7
:10429000696D0020249F002090C9002048542520EB
:1042A000D0D00020C8DD00207CB5002040DD0020FB
:1042B0005CC900207E6D00204A0654BFC1F3401245
:1042C0004FF0FF320B0610B5044658BFC1F3800112
:1042D000054848BF4FF0FF3114F012F82046BDE802
:1042E0001040FFF7ADBE00BF44B5002010B4447BC2
:1042F000202902460B4644EA0104017344730FD09F
:1043000003D8012906D0042902E0402908D08029D9
:104310000CD105E0037D73B15DF8044BFFF708BED7
:10432000194610465DF8044BFFF7C6BF0BB90123D1
:1043300000E0002313755DF8044B70472DE9F04F42
:104340007A4C93B07A49204613F0FEFF18B9034621
:1043500002467849E2E0237913B91A467649DDE04E
:104360000024734AE1B27548FEF76CF818B90346A9
:1043700002467349D2E00134082CF2D1714C4FF05F
:104380000009002014F054F9CB46236820220021B4
:104390000AA8059314F070F8CDF80C900694694BB8
:1043A000059A1B689B1A684A934200F29480002683
:1043B00042F210734FF01008CDF81CB0B2460493CF
:1043C000CDF8209000245FFA84FB5C48594614F035
:1043D000DFFA90F85030814613B91A465B499DE0E8
:1043E0000AAF13F09DFE5946054657F82420584859
:1043F000099214F051FA4FF48053099A8DE809009C
:104400000023484614F0A4FA814613F089FE4FF4C5
:104410007A71451B012014F06BFA6423B9F5805FB3
:1044200003FB00F047F8240003D0002349491A4653
:1044300074E0049B013448482E44AB4228BF2B460D
:10444000AA45049338BFAA4614F096FB082CBAD1AB
:10445000B8F10108B6D1069B059A1B68DFED3F6AEB
:104460009B1A039ADDF8209007EE903AF309D145A4
:104470003B4CF8EE677A1A44019338BFD146039259
:1044800087EEA67A049B3749CDF800A03648DDF8C0
:104490001CB00BF1010BFCEEC77A17EE902A14F05A
:1044A000BFF9434642463049206813F0F9FE2046E2
:1044B00014F0B6FA2D4814F057FA00283FF46FAF05
:1044C0002A4814F04DF802287FF469AF434642466B
:1044D0002749206824E040F6B833994501D9254999
:1044E00009E0B9F5966F01D9234904E0B9F5617F78
:1044F0008CBF22492249234814F092F822492148CE
:1045000013F0AAFF1F49039B4A46A1F18000B3FBA9
:10451000FBF314F085F93C2300221349104800688E
:1045200013B0BDE8F04F13F0BBBE00BFD8E10020D0
:104530009C6D0020C86D0020E06D002074DF00201D
:10454000F16D0020FCC60220BFD40100026E0020E5
:10455000E0B40020136E002064E5002000009644C3
:104560005CC90020246E0020DFE10020B8CE0020CE
:10457000456E0020576E0020656E0020716E002091
:104580007D6E00205FE200208A6E002022490346F3
:1045900002460868F0B5214D0127214C42F8305BF6
:1045A000186388888979908091711E4D1E4E07CCC2
:1045B000C3F8B00020780024C3F8B41083F8BC001E
:1045C000C3F8B82003CD2A78C3F83001C3F83411FA
:1045D00083F83821154A03CE154EC3F8B001C3F84D
:1045E000B41196F804E003CA124AC3F830023068E6
:1045F000C3F83412C3F8B002184683F8B4E283F863
:104600002B70DC75C3F8D4431C625C621C85DC60D3
:104610001C619C829A60F0BD8C550020AC1000207B
:1046200094550020A4550020B0550020B855002016
:10463000685C0020C05500200048704734B202601A
:1046400000487047F8B5026070B50D4600F52C744F
:1046500006462146284614F037F840B10123294682
:10466000204686F82B30BDE8704013F0D9BF70BDEE
:104670002DE9F047044643480E460FF0EDFC054691
:1046800000287BD04FF0FF33C4F8D03333782BB100
:1046900031463C4813F058FE054648B9E37D0025F5
:1046A00004EB43031D849D81012384F82B3065E0D6
:1046B000E77D30464FEAC71808F1300AA244514658
:1046C00014F002F8002859D001232F21304684F835
:1046D0002B3013F085FF8146E8B13FB20023F9018A
:1046E000B14512D0802B08D10025A04404EB47042B
:1046F00088F830502584A58140E05A1816F8010B3F
:104700000133224482F83000EAE7A0440022434407
:1047100083F8302003E01C49504613F081FFE37D0D
:10472000DB013033E018E35C13B9174913F078FF6D
:10473000E77D04F2413804EBC71641463036304677
:1047400013F0C2FF20B104EB470700233B84BB8179
:104750003146404613F064FF09F1010304F52C7261
:104760003146084811F01CFCE37D80B204EB4304A1
:1047700010B10138A08101E0A08120842846BDE865
:10478000F08700BFD8E10020AC7E0020D0F8D02315
:104790002DE9F04F0446501C85B005D0E37D103361
:1047A00034F81350AD1A00E0002585EAE5738D4812
:1047B000A3EBE573E062102B94F82B30A8BF002523
:1047C000002B3DD041F20402002113F055FE94F875
:1047D000B032E27D0026A3F12F01834804EBC21220
:1047E0004B4202F130024B41E16A02934FF4806385
:1047F0008DE848007D4B11F0BFFC94F8B02220EA10
:10480000E0702F2A83B2238317D0E27DC3F5806343
:10481000E16A9BB2029604EBC2120196009301EB8F
:10482000800104F52C7330326F4811F0A5FC238B06
:10483000B042ACBF181898192083002384F82B309D
:10484000E37DE66A103334F8138040F2FF33984575
:1048500028BF9846002D06EB880623DDC5F1100918
:104860000021282762485FFA89F906EB89066B1850
:1048700007FB01020F2B02F27912A8BF0F230533A9
:1048800007FB0303B13303F1240E53F804CB734544
:1048900042F804CBF9D101311B8810291380E6D1ED
:1048A0000F2723E020D06F420F214FF0280E5048F1
:1048B000FFB26B180EFB010223EAE37302F27912D6
:1048C00005330EFB0303B13303F1240C53F8049BAF
:1048D000634542F8049BF9D11B8811F1FF31138025
:1048E000E7D24FF0000901E00F27A9464FF0000B77
:1048F0003F4D4F456DD308EB090309F1050AB3F5A8
:10490000806F0BDB282126233A4A204601FB0A51FF
:1049100000930123B13113F037FD55E03268D2B175
:10492000012AE37D37D1282104EBC3101D2301FBAD
:104930000AFA009313460AF1B90100F13002204649
:10494000294413F021FD26230AF1B1012A4A0093DC
:10495000002329442EE094F8B0222F2A13D1BBF172
:10496000000F10D1228B93420DDC28212623234AED
:10497000204601FB0A514FF0010B00930123B13196
:1049800013F002FD19E0262328211A4A009301237F
:1049900001FB0A510DE004EBC31113480023303131
:1049A00011F0BCF92623282102460093012301FBC4
:1049B0000A51B131204613F0E7FCD5F8AC3003B111
:1049C0009847336803B1043609F101095FFA89F9A0
:1049D0008FE7E37D103334F81330C4F8D03305B0DB
:1049E000BDE8F08FBC080120D8E10020AC7E00209B
:1049F0008CB50020F16A0020B16E00209E6E002070
:104A0000F8B501F0FD02C37D04467A4D00EB43008A
:104A1000802A068C1CD100230384194694F8B02206
:104A200028462F2A14BF1A46012214F009F8E27D05
:104A3000687804EB42026B89118C03448E420B446C
:104A4000938100F0D5802046BDE8F840FFF79EBE78
:104A5000042A44D104EBC31104F52C7200236648E8
:104A6000303111F09DFA94F8B03280B22F2B01D181
:104A7000013080B21028E37D06D9103308380722B0
:104A800024F81300002306E003F11002002324F8A9
:104A90001230421E92B21946564813F0D1FFE27D01
:104AA000687804EB42026B89118C03448E420B44FC
:104AB000938102D02046FFF769FE4E4E6A786B89DB
:104AC00013449BB2002B00F09380E37D04EB43037F
:104AD0009A89E36A53F8221000295BD0F8BD4A0690
:104AE00054BFC1F340174FF0FF378B0701D5FB00D0
:104AF0001FB26B786989194417FA81F30F2B0ADD0D
:104B0000A3F11001721C8BB21A44FB1A92B2013B42
:104B100002841FB208E0002B0BDA028C22B11BB119
:104B2000013A01330284F8E7964202D02046FFF7AB
:104B30002DFE3A4600212F4813F0E2FBE37D6A89FF
:104B400004EB430369782B4E11441A8C0A449A8172
:104B50006A786B8913449BB2002B49D0E37D04EB48
:104B600043039A89238B9A4223D8224E6A786B8911
:104B700013449BB2002B3BD0E37D04EB43039A89A3
:104B8000E36A53F82210002932D194F8B0322F2B67
:104B90001FD1F8BD4FF0FF32164813F0B1FBE37D93
:104BA000728904EB4303717811441A8C0A449A8188
:104BB00084E74FF0FF3200210E4813F0A1FBE37DA4
:104BC000728904EB4303717811441A8C0A449A8168
:104BD000BEE74FF0FF32074813F092FBE37D728986
:104BE00004EB4303717811441A8C0A449A81BDE79F
:104BF000F8BD00BF44B50020D8E10020F8B5044658
:104C0000414813F005FF414D414A2846A2F5717114
:104C100013F08EFD0023A76884F8CD334FF0FF33E7
:104C20003846C4F8D03313F0DFFC0646394605F2A7
:104C3000291013F0F5FC55FA86F6202386F8293161
:104C4000344BD4F8D423D3F810339A4204D0C4F8A8
:104C5000D433012384F82B302F4B1B7B0C2B04D037
:104C6000152B23D00A2B44D130E02C4B5B7B6BB34C
:104C700020462B4F13F088FE0146264813F074FFA0
:104C80000646204613F080FE0146224813F0ECFC55
:104C9000034678B1E27D002304EB42029381138442
:104CA0004EB31A461F49386813F0FAFA012384F804
:104CB0002B300BE01EB31A461B49386813F0F0FA8C
:104CC000E37D002204EB43039A811A84174813F012
:104CD000C3FC012384F8CE33002404F2D130283CF5
:104CE00026222021284413F0C7FB14F5207FF4D19D
:104CF000F8BDA375EAE7334632460D49D3E733469C
:104D000032460C49D9E700BF18E100208CB50020DD
:104D1000F8B50260D8E10020C8DD00207CB5002095
:104D20005CC90020BA6E0020D96E002044B5002076
:104D3000CC6E0020FD6E0020182970B53CD00246D4
:104D400018D80329044600F08C8005D8012900F00A
:104D5000BE80914D6DD9B3E0062900F0108103D8D3
:104D6000042900F00C8170BD082940D0122900F000
:104D7000E48070BD422900F002810ED8222900F0A3
:104D8000FE8003D8202900F0008170BD282900F0A2
:104D9000FC80402900F0F98070BD802900F0EF8090
:104DA00003D8482900F0F18070BD822900F0E78027
:104DB000902900F0BE8070BD784B1A6812F0400256
:104DC00002D040207649086076494979C9B20AB1D3
:104DD00040221A6029B101217248BDE8704013F0E9
:104DE000AFB918217048BDE870400DF099B9837DC6
:104DF000052B40F0CF8013F0C7FD2F2113F0F0FBFF
:104E00006A49054613F060FC002800F0C3802E219B
:104E1000284613F0E5FB002800F0BC80204613F084
:104E2000B3FD0146624813F0B3F9012384F8CD3392
:104E300070BD90F8CD332BB15D4813F0A1FE002377
:104E400084F8CD335B4B1A7842B10022A17D5A48D9
:104E50001A704FF0FF33E361FEF7FAFE00232B7068
:104E600070BD0023534A012113704B4A1170C17D5C
:104E700000EB410204EBC1119089E26A303152F833
:104E800020204E4810F04AFF03780A2B00F0828061
:104E90002E2B7FD0454913F017FC00287AD02046EE
:104EA00013F072FD0146454813F05EFE444B08B115
:104EB000444A00E0444A9A6001220C219A7322E09D
:104EC0002B78002B66D101223A4B1A7070BD90F8F6
:104ED000CD3313B1364813F053FEE17DE26A04EBA3
:104EE000410304EBC11198890023303152F820208E
:104EF000324810F013FF03780A2B09D194F8B0322E
:104F00002F2B47D115212C48BDE87040FEF7A0BEDD
:104F10002F2B03D00123A17DE361F4E7234913F094
:104F2000D3FB08B9204604E02046BDE8704013F0EA
:104F3000BFBBBDE8704013F047BC00251D4B234E9E
:104F40001D700123144A80F82B301370FFF71EFCEC
:104F50002B462A461E49306813F0A2F9306813F038
:104F6000DFFA204613F08CFD2046FFF70FFC2B469E
:104F70002A4630681749BDE8704013F091B9002007
:104F80000C4B18700120044B18701046BDE870409F
:104F9000FFF736BD70BD00BF66D0022008E100E01B
:104FA00088E100E0D0D00020D8E00020136F00207E
:104FB00090C9002067D00220C8DD0020D8E1002081
:104FC0007CB50020176F0020326F00205CC90020E4
:104FD000486F00205D6F0020837C70B504460D464D
:104FE000164633B9094B1A781B7A1A4412F0FF029D
:104FF00006D0324629462046BDE87040FEF720B96B
:10500000036801211B6C9847F3E700BF44B50020FB
:10501000F7B504461C4813F0FBFC1C4D1C4A022744
:1050200028461C4E02F5717113F082FB1A4B28467C
:105030000322C5F8A830002523790721009713F033
:1050400003FC304684F82450A57413F065FD10224B
:105050003B4639460092304613F02EFD2A4629463B
:10506000304613F04DFD2B46A2793046617913F09E
:10507000E7FC236820461B6B9847236820469B6B00
:1050800003B0BDE8F040184718E100208CB50020BF
:10509000BCB9026044B5002089EA0100002307B5CD
:1050A0001A460179064813F0BFF800230146202272
:1050B0000448009313F028FD03B05DF804FB00BF23
:1050C000485425208CB50020182937B504461ED138
:1050D000344D284613F0C4F910B195F8C63BF3B926
:1050E000A37C314D03B3314B9B7A022B1CD130484A
:1050F00013F036F8EB79A97942781944002301932B
:10510000C078801A0130000180B2009013E0254879
:105110000D4613F0A5F998B1882D11D13FE001217A
:10512000284613F00DF8DBE7EB79A979A279194449
:10513000002301930093C9B21A4813F065F82EE0DA
:10514000184D284613F08CF970B1284613F088F9F1
:1051500018B195F8C63B012B06D10121114803B0C7
:10516000BDE8304012F0ECBFA37C0F4D1BB10F4BDC
:105170009B7A022B04D0A3790020227969790AE076
:105180000B4812F0EDFF4378C0782279C01A697994
:105190000130000180B20090024813F049F903B0D9
:1051A00030BD00BFD0D00020D8E00020C8DD0020F6
:1051B00044B5002010B4054C022110220460418344
:1051C000C183828302845DF8044B70476C0C00201D
:1051D0000048704780BD026000487047BCB902605B
:1051E0000D4A137A12781344DBB2012B13D1C36832
:1051F0000A4810B593F90020002AACBF08490949B4
:1052000013F00EFB002308481A4604490068BDE865
:10521000104013F045B8704744B50020DFE100208E
:105220006E6F0020866F00205CC90020837C002BFD
:1052300073D1037CF7B50446002B6CD1C368374D9E
:105240001E7829782B7A19440368C9B25B6C984799
:10525000864222D12A782B7A1344DBB2012B15D156
:1052600094F824301BB1E36894F823201A702B7A49
:1052700020462E7822681E44536CF6B2176C3146D5
:105280009847314602462046B84718E02344E26872
:1052900093F822301370012310E0637EE2682068E7
:1052A0004BB31F4B9B8D022B25D1836A204611786F
:1052B0009847002801DBE3681870002363762A789A
:1052C0002B7A1344E268DBB21078E11881F82200EF
:1052D00003B953706A786B89124813440222DBB217
:1052E00000930023E16813F00FFC204603B0BDE8F3
:1052F000F040FFF775BF2B7A297812781944036CB8
:105300002046C9B298472A782B7A134413F0FF0F2E
:1053100001D10123637603B0F0BD704744B500208E
:10532000B8CE00208CB5002038B5002504460572A3
:1053300085714571458413F0DFFB29462046BDE8A1
:10534000384013F0E9B900BF2229F8B5064636D037
:1053500002D8062913D0F8BD42294DD082297ED12A
:105360003F4D6F793C467CB1013CEA79A979E4B2C2
:105370006C71204613F0BCFBFF28F4D005E0384DDB
:105380006F793C46062C0FD93C46EA792046A9792C
:105390006C7113F0ADFB0146304613F0BDF9314B93
:1053A0009B7A022B5BD154E00134EA79A979E4B20B
:1053B0006C71204613F09CFBFF28E3D0E5E7284CF6
:1053C000A579E3791D44EDB2691CC9B20F2904D94E
:1053D000A5F10E030F21E37101E00023E371A17138
:1053E000E279607913F084FBFF281D4F28D10F2D3F
:1053F00023D90F3DFD711EE0194CA279E3791344C6
:1054000013F0FF052BD0691EC9B20F2904D9A5F1ED
:1054100010030F21E37101E00023E371A171E27930
:10542000607913F065FBFF280D4F09D10F2D04D9CA
:10543000A5F10F03FB710F2501E00023FB71A5719E
:10544000A179E279607913F053FB0146304613F0FD
:1054500063F902210348BDE8F840FEF7F9BBF8BD47
:10546000D8E00020C8DD00202DE9F04F994687B034
:105470000023044601920F461A4602A9CA5401337A
:10548000102BFAD1019D4D4542D8236800223946A0
:1054900020465E6A2B46B0470378FF2B35D006AB1B
:1054A0002B4413F8106C86BB4FF00102394620469E
:1054B00003F8102C32462368D3F82880D3F824A0B0
:1054C0002B46D04701782046C047B0F1FF3F8046C9
:1054D0004AD023685FFA88F832463946D3F82CA0C0
:1054E0002046D3F824B02B46D847424601782046C0
:1054F000D047019E4E450DD92368002239462046EB
:105500005E6A2B46B04780F800800135EDB2BAE7FD
:10551000012629E0B54224D02368002239462046DE
:10552000D3F824A03346D047236890F800A0002287
:10553000D3F824B039462B462046D8470378534544
:105540000FD106AB4FF0010239462046334403F831
:10555000102C00222368D3F824A03346D04780F8CB
:1055600000800136F6B2C5E7304607B0BDE8F08FDF
:1055700000232DE9F341437604462B4812F0F0FD59
:105580000378002B4CD18378002B49D14778C6781B
:105590002046E3683A46217993F800803346FFF7C6
:1055A00063FF224D034620B902462149286812F0C4
:1055B00077FE1D4813F0B0FAB74203D000231D490F
:1055C0001A4609E0E36842461B491B781B4813F062
:1055D00027F9002319491A4628680026124D12F0AF
:1055E0005FFEE1682A782B7AA67413446A7814481F
:1055F0000092DBB2012213F087FA6B896A782846A1
:1056000029781A442B7A194492B23346C9B213F05E
:1056100017FA236820461B6B02B0BDE8F04118471B
:1056200002B0BDE8F08100BF44B500205CC9002095
:105630009D6F0020B36F0020CB6F0020DFE10020C2
:105640008CB500202DE9F8434B1C01D0CDB200E011
:1056500000252C46FF2C37D0002601275FFA86F85C
:10566000002321461C48424612F0DEFD0378FF2B42
:1056700030D1012342462146174812F0D5FD037868
:1056800043BB0136102EE9D1DFB1002700265FFAB7
:1056900087F9B046F2B249460F48013613F090F947
:1056A0000378A34208BF4FF00108082EF2D1B8F1E9
:1056B000000F06D10137B7F5807FE7D12046BDE85E
:1056C000F8830134E4B2C5E7002DC1D14FF0FF30BB
:1056D000BDE8F8830027D4E748542520012970B598
:1056E000044601D900234376202900F0948020D875
:1056F000052978D00DD8022960D004D8002938D0E7
:1057000001295ED070BD032964D0042900F0838094
:1057100070BD11293ED004D806294AD0082930D0BE
:1057200070BD142900F0858018292AD012292BD0A9
:1057300070BD42293DD00CD8302976D004D821291B
:1057400051D0222935D070BD402964D041294AD09A
:1057500070BD812947D004D8502964D080295AD0FF
:1057600070BD88290DD0902961D0822940F09280A7
:105770001FE00122484B20461A70BDE87040FEF73A
:1057800049B923681B6D01E023685B6D2046BDE8C5
:10579000704018470022404B1A70A37C22680BB15E
:1057A000536EF3E7D56D20460122AC46BDE870404C
:1057B00060472046BDE87040FFF7C6BD23689B6D7B
:1057C000E4E7354B1B781BB1236820461B6E9847D6
:1057D000002325E023680022204684F824201B6F44
:1057E000BDE8704018472C4B1B78002B52D02B4A39
:1057F000137A127813442268DBB2956E012B01D123
:105800000C2201E0012310222046A8472046BDE8D3
:105810007040FFF7E5BC236820465B6F9847012383
:1058200084F8243070BD06212FE00D212DE00021E9
:105830002BE00022A3792179204613F0FDF8FF2800
:105840000246A07109D1002315481649A3711A46D2
:105850000068BDE8704012F023BD134B9B7A022B09
:1058600007D10E48037A017819440023C9B213F016
:10587000E7F823680022217920465D6AA379A847CA
:1058800001780A4813F0F4F803210748BDE8704096
:10589000FEF7DEB970BD00BF0B97002044B50020B5
:1058A0005CC90020E66F0020C8DD0020A0D00020E9
:1058B000F7B50446264813F0ABF8264A2649274890
:1058C00012F036FFA6680023324612F8011B21B100
:1058D00011780A29F9D10133F7E7C3F10A03282027
:1058E0001E4900FB03F20F46B3320A443578B5B1C6
:1058F00003FB00013546C6EB030CB33139442E4699
:105900000CEB050315F801EBBEF10A0F02D10A46B4
:105910002831F4E782F800E001360132E6E710486A
:1059200013F0FAF8012202230D480092194613F0F1
:10593000C3F82B462A46A17B094813F081F8094B8E
:1059400025731B7BA5736573237103B0F0BD00BF86
:1059500018E10020EC210020B02500208CB50020AB
:1059600044B50020C8DD00200249002201604273D6
:10597000704700BFF80D002000487047B025002098
:1059800000487047EC2100200B064FF0000204484D
:1059900054BFC1F380014FF0FF3112F0B1BC00BF22
:1059A00044B5002011B9012303737047037B3BB357
:1059B00021290BD8202921D2022919D002D8012966
:1059C0000DD070470B1F012B18D97047402917D3F2
:1059D000412913D9A1F18003012B0FD97047094A3E
:1059E0001178137A0B44DBB2B3FA83F35B0900E05E
:1059F0000023437301790448FEF72AB9FFF7C4BFB7
:105A0000704700BF44B50020C8DD0020014B036093
:105A1000704700BF6C1600200048704744C1026008
:105A20000048704708C502602DE9F041CD070646E1
:105A300010D4027941794A4812F046FDC0B23A28A2
:105A400001D94530C0B2B071F1794648BDE8F041A6
:105A5000FEF7FEB8212906D001D8052902E0412928
:105A600001D081297AD10C063F4F54BFC1F3800881
:105A70004FF0FF3848063D4854BFC1F340144FF083
:105A8000FF3412F0E5FE50BB3B783A7A1A44D3B2A9
:105A900008EB03014A1C0AD179787A890A4492B248
:105AA000022A0CBF03F1040803F1080817E00429D7
:105AB00007DD78787A89024492B2022A4AD008290E
:105AC00048DC7B897A781A4492B2A3180A2B01DD4C
:105AD000544203E0013302D102F10A0424B2224D00
:105AE00022464146284612F00BFC7B897A783978A9
:105AF0001A443B7A1A481944D2B2C9B212F0E4FCF3
:105B0000737A834219D8002332797179284612F0CA
:105B100097FF6B896A7829781A442B7A10481944C0
:105B2000D2B2C9B212F0D0FC737A83420DD80023EE
:105B300028461A46194612F083FF2B7A2A78134416
:105B40006A7873716B89134433713046BDE8F04154
:105B500012F03EBB5B420FFA83F8C0E7BDE8F0816C
:105B60008CB50020C8DD002044B50020B8CE002050
:105B700073B50F4C0546017A2046267B12F024FDB2
:105B80000C4812F015FE002368721A4619460A489E
:105B900012F0E6FB002301465F220093074812F053
:105BA000B3FF3146204602B0BDE8704012F00CBD94
:105BB00090C900203CDD0020485425208CB50020F1
:105BC00037B504461B4812F023FF1B4D1B4A2846DD
:105BD000A2F5717112F0ACFD194B1A48C5F8A83046
:105BE00012F09AFF0923102216481946009212F06B
:105BF00063FF00221348114612F082FF124B2279F4
:105C00001B7B6179092B0F4818BFE371002312F049
:105C100017FF034620B9024601460A4812F010FF5A
:105C20002046FFF7A5FF204603B0BDE8304012F044
:105C3000CFBA00BF18E100208CB5002008C5026073
:105C4000B9ED010044B50020C8DD00200022024962
:105C50000272016042727047C81C0020024B0A2089
:105C600000FB0130704700BFCCC80260004870479D
:105C700080C902600048704744CD0260704700BF91
:105C8000704700BF014804F011BE00BF60DD002076
:105C9000014804F029BE00BF60DD0020704700BF4E
:105CA00073B5204D0E4604461F486B896A782978E3
:105CB0001A442B7A1944D2B2C9B212F005FC31064B
:105CC0006268C0B254BFC6F380014FF6FF7113780B
:105CD00016F0200F0B449BB205D116F0400F14BFF5
:105CE0001021002101E04FF6F0710B441BB283F349
:105CF0000803137063681A780C4B195C204612F085
:105D000087FB2A782B7A697813446A8906480A4403
:105D1000DBB26168D2B20092012212F0F5FE02B04D
:105D200070BD00BF44B500208CB5002010350020A8
:105D300073B5234C054623486389627821781A4459
:105D4000237A1944D2B2C9B212F0BEFB6B68C6B254
:105D50001978112E02D81C4A925D00E000221A70B8
:105D60006B681B788B4213D10B21334600221748F6
:105D700012F03EFE011E0BDBC9B2144812F064FAA9
:105D800030B10023124813491A46006812F088FA0D
:105D90002278237A6178134462890A480A44DBB284
:105DA0006968D2B20092012212F0AEFE6B682846FA
:105DB0001A78094B995D02B0BDE8704012F028BB1B
:105DC00044B500208CB50020D834002020CF00201E
:105DD0005CC90020017000201035002038B5002477
:105DE000074D295D074812F0E7FD0122E3B20134B7
:105DF0000146054812F034FD122CF2D138BD00BF27
:105E000010350020485425208CB5002013B50446D9
:105E1000184812F0FDFD184A1848A2F5717112F0E9
:105E200087FC174812F078FE02230F221448194607
:105E3000009212F041FE00221148114612F060FE5D
:105E40000023227A617A0E4812F0FAFD38B903462F
:105E50006072207202460146094812F0F1FD0023EB
:105E60002046A374FFF7BAFF204602B0BDE81040F9
:105E700012F006BC18E1002044CD02608CB5002071
:105E800044B500200A46090654BFC2F380014FF012
:105E9000FF31530610B5044658BFC2F340120548FF
:105EA00048BF4FF0FF3212F02BFA2046BDE81040F9
:105EB00012F0E6BB44B5002018290B4610B52AD0D5
:105EC000024613D8052930D005D8032929D032D865
:105ED00000294FD010BD11293CD002D808291AD072
:105EE00010BD12292DD014293ED010BD41291CD03F
:105EF00006D8212919D040291DD020293CD11AE0EB
:105F0000802918D002D850292ED010BD81290CD05C
:105F1000902929D010BD19461848BDE8104002F05C
:105F200067BCBDE81040FFF703BF19461046BDE847
:105F30001040FFF7B5BE19461046BDE81040FFF708
:105F4000A1BF0F4B1A781C4612B90E4804F0AEFCE4
:105F5000012307E00A4B1A781C4612B9094804F0DD
:105F6000C3FC0223237010BD0D210748BDE810407B
:105F7000FDF76EBE024A117010BD00BF80D0002038
:105F80006ED0022060DD0020C8DD0020704700BF19
:105F900000220249027101604271704780140020A2
:105FA0000048704708D1026000487047CCD40260B6
:105FB000704700BF704700BF704700BF002307B5A0
:105FC00000F10C0110220348009312F09DFD03B074
:105FD0005DF804FB8CB50020437913B1012B03D08D
:105FE00070470821294807E02DE9F04106792EB1D4
:105FF00081792648BDE8F041FDF72ABE00F10C0783
:106000000446102222483946224D0FF0ADF8237B7A
:1060100013B91A46204918E0204B2148D97D03EBDB
:10602000C111303112F0FCFA1E491D4812F014FA69
:1060300039461B4812F010FA1949C81F12F084F9AA
:10604000074638B13346324617492868BDE8F04163
:1060500012F026B91249C81F12F0B6FC0646A17903
:106060000A482EB1FDF7F4FD3B463A460F49ECE7EE
:10607000FDF7EEFD2868334632460D4912F010F95F
:106080002046BDE8F041FFF799BF00BFC8DD002002
:10609000D8E100205CC90020227000202000000010
:1060A000DFE10020AC7E00202F7000203B7000203C
:1060B0004D70002043792BB90379FF2203441A73F2
:1060C000FFF77CBF704700BF044B5A8959780A44D8
:1060D00042711A781B7A13440371704744B500204B
:1060E00037B50446284812F093FC284A2848A2F500
:1060F000717112F01DFB274812F00EFD0F221E23B6
:1061000024480092194612F0D7FC002362792179C5
:10611000204812F095FC0123E3711F4B1A7B02F01B
:10612000FB01082901D0152A2BD11B7B082B0FD18D
:1061300025791A48254412F0CFFA002328732179D3
:10614000627901311348C9B2217112F079FC05E07E
:106150001022FF2104F10C0012F08EF92046FFF707
:106160002DFF2046FFF7B0FF0D4821230D49C27DCA
:106170000093012300EBC212303212F005F903B094
:1061800030BDA271D1E700BF18E10020CCD402607D
:106190008CB5002044B50020C8DD002098DD00202B
:1061A000200000000AB700204A0654BFC1F3401285
:1061B0004FF0FF320B0610B5044658BFC1F3800103
:1061C000054848BF4FF0FF3112F09AF82046BDE86D
:1061D0001040FFF779BF00BF44B5002004290246F4
:1061E00038B50B461ED008D802290DD0044613D866
:1061F00001291DD1FFF7F0FE11E0402912D08029BE
:1062000010D0202914D10DE0C379ABB181790B48AE
:10621000BDE83840FDF71CBD0321FFF74BFF00230D
:10622000E37138BD19461046BDE83840FFF7BCBFE2
:10623000B3FA83F35B09D37138BD00BFC8DD00201A
:10624000704700BF38B50025044605728571457159
:1062500012F052FC257138BD37B504461B4812F0C8
:10626000D7FB1B4A1B4802F5717112F061FA2379C2
:106270001F2B01D91F232371022200252379082116
:1062800000920322134812F0DFFAA574124812F0AC
:1062900043FC0123102210481946009212F00CFC16
:1062A0002A4629460C4812F02BFC2B46A27961792C
:1062B000094812F0C5FB236820461B6B98472368EA
:1062C00020469B6B03B0BDE83040184718E1002022
:1062D00090D802608CB5002044B5002007B500229C
:1062E0000179064812F0ACFA002301461022044856
:1062F000009312F009FC03B05DF804FB485425201C
:106300008CB5002010B4054C01211022046041839B
:10631000C183828302845DF8044B70471C0E002009
:106320000048704754DC02600048704790D8026013
:1063300000292DE9F84302DB5FFA81F901E04FF013
:1063400001094C461F2C56D800222146344812F031
:1063500077FA0378062B55D101222146304812F0F6
:106360006FFA0378062B4DD1022221462C4812F0F9
:1063700067FA0378FF2B45D100274FF00008FDB2E4
:106380005FFA88F6032329462548324611F0E8FFD4
:106390000378032B09D0052332462946204811F003
:1063A000DFFF0378032B13D109E00423324629468B
:1063B0001B4811F0D5FF0378A342ECD122E006235D
:1063C00032462946164811F0CBFF0378A34219D074
:1063D000072332462946124811F0C2FF0378032BE7
:1063E00013D10823324629460D4811F0B9FF03782E
:1063F000A3420AD106E0B9F1000FA0D14FF0FF305F
:10640000BDE8F8830134E4B29CE708F10108B8F173
:10641000100FB5D10137FF2FAFD12046BDE8F8836B
:106420004854252010B50446017912F001FA0346BC
:10643000E2681278FF2A05D102460949094812F09C
:10644000EFF903E00849074812F0EAF9002307488A
:1064500004491A460068BDE8104011F021BF00BF92
:1064600068700020DFE10020837000205CC90020FC
:10647000837C13B1012310226AE073B5514C0546A9
:1064800088060E46638962781A44D2B202F001038C
:1064900029D529799BB901324B48D2B212F0D0F9F3
:1064A0000378FD2B4AD86389627829791A444648D3
:1064B0000132D2B212F0C4F90378013355E0013A47
:1064C0004148D2B212F0BCF90378FD2B36D863896B
:1064D000627829791A443C48013AD2B212F0B0F9F4
:1064E000037801335EE0710628D529799BB9013222
:1064F0003548D2B212F0A4F90378FBB1638962780F
:1065000029791A4430480132D2B212F099F903784D
:10651000FF2B1FD112E0013A2B48D2B212F090F9B2
:1065200003785BB16389627829791A442648013A75
:10653000D2B212F085F90378FF2B28D12846FFF755
:1065400071FF0123314628461A4602B0BDE870406B
:10655000FCF764BD6389627829791A441A480132CC
:10656000D2B212F06DF90378013B03702278237ADE
:10657000607813446289E9680244DBB20132D2B226
:10658000009201221144114812F0BEFAD6E7638945
:10659000627829791A440C48013AD2B212F050F9C3
:1065A0000378013B03702278237A60781344628970
:1065B000E9680244DBB20139013AD2B20092012209
:1065C000E1E700BF44B50020485425208CB50020E9
:1065D000182900F095800B4610B504461BD80529F4
:1065E00075D00BD802295BD003D891B301295CD0B8
:1065F00010BD032962D0042972D010BD112935D0F5
:1066000004D806293FD0082929D010BD12292AD044
:1066100014296ED010BD412959D00CD8222939D067
:1066200004D820295CD0212951D010BD302960D058
:10663000402955D010BD802952D004D842292CD0F1
:10664000502954D010BD82291AD040D3902950D05F
:1066500010BDFDF7DFF901222B4B1A7010BD2B483E
:10666000BDE810404DE003685B6D1BE0264A002347
:1066700013700268D46D0122A446BDE81040604743
:106680000179013901E001790131C9B211F044FF0A
:1066900001212FE001791039F7E701791031F4E792
:1066A00003689B6DBDE81040184700234376164BE6
:1066B0001B7823B303681B6E984703E0036800222E
:1066C0001B6F98472046BDE81040FFF7ABBE0E4A4F
:1066D0001278A2B120461946BDE81040FFF7C8BEA7
:1066E000226820461946526FBDE81040104713211A
:1066F00000E003210648BDE81040FDF7A9BA10BD2F
:10670000024803F0EFBC00BF0D970020A0D000208E
:10671000C8DD00202DE9F843174A0023FF218146F8
:10672000026000F5FE754FF0FF3200F25F2600F5C3
:1067300017781C463227C174037383730374C373C1
:106740004374837480F825308375026280F82720B3
:10675000202012F049F8072245F8040FFF23454591
:10676000C481048247820470828206F8013FEFD11F
:106770004846BDE8F88300BF9016002000487047E7
:1067800018E0026000487047DCE3026070B5012247
:10679000017B06462D4811F0E7FC0022431E0B301A
:1067A00013F8011FFF2908BF1A709842F8D100257D
:1067B0000122317B254811F0D7FC435D13F0DF0F38
:1067C00002D0ECB225B970BD01350C2DF5D170BDEC
:1067D000621CC4F10B04317BE4B21C48D2B2013418
:1067E00011F0C2FC002304440178421B117000F830
:1067F000013BA042F8D10122317B144811F0B4FCD6
:1068000000231C46C25C12F0DF0F18BFDCB201335C
:106810000C2BF7D10122317B0C48202511F0A4FC70
:1068200000221146944201DA01700AE003780BB9A4
:10683000057006E0A3F16106192E01D8203BDBB2FA
:106840000370013201300C2AECD170BD4854252070
:10685000704700BF704700BF4368002B51D02DE93F
:10686000F041044602252DED048B9FED269ADFEDC5
:10687000268A6068EEB2FF2203683146D3F8EC3016
:10688000984701460746002012F032F807EE900ABA
:10689000217B1E48B8EEE78A11F03AFC142F435DC5
:1068A00007EE903A05D9F8EE677A28EE098AA7EE46
:1068B000A88A217B154811F02BFC07466068FDEE85
:1068C000C87A3146036817EE902AD3F8EC3098471F
:1068D00078550135482DCCD10D48817A05290CD148
:1068E000FDF7B6F900230B481A460B490068BDECCA
:1068F000048BBDE8F04111F0D3BCBDEC048BBDE8C6
:10690000F0817047CDCC4C3D3333733F4854252044
:10691000C8DD00205CC90020A27000207FB5164DA4
:10692000064600224FF0FF31AB79284611F050FDAA
:10693000AB79044601224FF0FF31284611F048FDA3
:10694000431EFF2C4FF00005DBB2327B08BF24242E
:10695000FE2B0A4B28BF64205979FF2302958DE84E
:1069600009002346064811F047FC0123357586F8D7
:10697000263004B070BD00BFA0D00020D8E00020B9
:10698000D0D0002070B5C37C0446FF2B1FD1017B03
:106990000022224811F0E8FBD722014604F2CF3052
:1069A00011F0F2FE1D4812F01FF8002300F2CF3064
:1069B000217B1A462518194811F046FD064617484E
:1069C00011F0B6FC31460246284611F0DDFE217B6F
:1069D00000221248E17411F0C7FB05460F4812F07F
:1069E00003F82946024604F51E7011F0CDFE0B484F
:1069F00011F0FAFF002300F51E70217B1A462518BE
:106A0000064811F021FD0446044811F091FC21468E
:106A100002462846BDE8704011F0B6BE4854252015
:106A200070B51B4D06461B486B896A7829781A4455
:106A30002B7A1944D2B2C9B211F046FDC4B20E2C61
:106A40000DD9706858B10368A4F10F01D3F8CC30A8
:106A5000C9B29847482802D10123337570BD7068C8
:106A6000A0B10368A4F11001D3F8CC30C9B29847A3
:106A700048280CD16A786B8913449BB2032B06D14A
:106A800012210548BDE87040FDF7E2B870BD70BD49
:106A900044B500208CB50020C8DD00202DE9F04170
:106AA00090F8285015B10020BDE8F0814368002B14
:106AB000F9D00E460446EFB2217B164807F10F02CB
:106AC000D2B211F051FB90F800806068394603683B
:106AD000D3F8E4309847804504D10135482DEAD1F8
:106AE000002500E001250022217B0A4811F03CFB33
:106AF00090F857300BB9002DD5D0074A0C21074B21
:106B000007489A60FDF7A4F884F828600120BDE8E2
:106B1000F08100BF48542520AC7000207CB50020D7
:106B2000C8DD00202DE9F04F394C894685B0064676
:106B30006389627821781A44237A36481944D2B29C
:106B4000C9B211F0C1FCC7B20E2F5ED996F825303C
:106B5000002B5AD07068002857D0B3682546A7F19B
:106B60000F0493F800A0E4B203682146D3F8CC30B8
:106B70009847482849D0D6F804802146D8F80030F4
:106B80004046D3F8C4B0D3F8CC30984701464046CD
:106B9000D847002839D0D6F804802146D8F80030EC
:106BA0004046D3F8C4B0D3F8CC30984701464046AD
:106BB000D847D6F804800328D6F808B0D8F80020C3
:106BC000214608BF4FEA69094046D2F8EC30D2F8B6
:106BD000CC2003939047039B01464A464046984782
:106BE00052468BF800003946304611F0F5FA2A7803
:106BF0002B7A697813446A8906480A44DBB2B16883
:106C0000D2B20092012211F07FFF05B0BDE8F08FF3
:106C100044B500208CB500202DE9F34145680446B9
:106C2000002D46D02B6828460025D3F8943098478D
:106C30000522034609213C482E4611F06DFB002237
:106C4000217B3A4811F090FA009501462B460F221D
